:100000000C943B090C9457090C9457090C9457090C
:100010000C9457090C9457090C9457090C945709E0
:100020000C9457090C9457090C94A9100C940511C1
:100030000C9457090C9457090C9457090C945709C0
:100040000C9457090C9457090C9457090C945709B0
:100050000C9457090C9457090C9457090C945709A0
:100060000C9457090C9457090C9457090C94570990
:100070000C9457090C9457090C9457090C94570980
:100080000C9457090C9457090C9457090C94570970
:100090000C9457090C9457090C9457090C94570960
:1000A0000C9457090C9457090C945709070E0F0E1E
:1000B000150E1B0E210E270E2D0E330E620E640E32
:1000C000660E680E6A0E6C0E6E0E700E00002B0F20
:1000D0002B0F2B0F2B0F2B0F2B0F2B0F2B0F2B0F50
:1000E0002B0F2B0F2B0F00002B0F2B0F2B0F2B0F7A
:1000F0002B0F00000000000000002B0F2B0F2B0F18
:100100002B0F2B0FD90F2B0F2B0F2B0F2B0F2B0F71
:10011000740F740F2B0F2B0F2B0F2B0F2B0FD90FCF
:100120002B0F2B0F2B0F2B0F2B0F2B0F0000000073
:100130002B0F2B0F2B0F2B0F2B0F2B0F2B0F2B0FEF
:100140002B0F2B0F2B0F2B0F00002B0F2B0F2B0F19
:100150002B0F2B0F2B0F2B0F2B0F2B0F2B0F2B0FCF
:100160002B0F2B0F2B0F00002B0F2B0F2B0F2B0FF9
:100170002B0F2B0F0000590F590F590F590F590F03
:10018000590F590F590F590F590F590F590F000097
:10019000590F590F590F590F590F590F590F590F1F
:1001A000590F590F590F590F590F590F590F2B0F3D
:1001B0002B0F2B0F2B0FD40F780F780FD40F2B0F83
:1001C0002B0F2B0F2B0F2B0F590F2B0F2B0F2B0F31
:1001D0002B0FD40F000000002B0F2B0FD40FD40FC8
:1001E000D40F2B0F590FD40FD40F2B0F2B0F000050
:1001F0000000590F00002B0FD40FD40F2B0F2B0F23
:1002000000002B0F2B0F2B0F2B0F2B0F2B0F2B0F58
:100210002B0F2B0F2B0F2B0F2B0F2B0F0000000082
:1002200000000000000000000000000000000000CE
:1002300000000000000000000000000000000000BE
:1002400000000000000000000000000000000000AE
:10025000000000000000000000000000000000009E
:10026000000000000000000000000000000000008E
:10027000000000000000000000000000000000007E
:10028000000000000000000000000000000000006E
:10029000000000000000000000000000000000005E
:1002A000000000000000000000000000000000004E
:1002B000000000000000000000000000000000003E
:1002C000000000000000590F590F590F590F590F26
:1002D000590F590F590F590F2B0F590F590F000074
:1002E000590F2B0F590F590F590F590F590F590FFC
:1002F000590F590F590F2B0F2B0F590F590F590F1A
:10030000590F590F590F590F590F590F590F2B0FDB
:100310002B0F2B0F2B0F590F590F590F590F590F27
:10032000590F590F00000000590F2B0F2B0F2B0FE7
:100330002B0F590F590F590F590F590F590F590FAB
:10034000590F590F590F2B0F2B0F2B0F2B0F590F25
:10035000590F590F590F590F590F590F590F0000C5
:10036000590F00002B0F2B0F2B0F590F000000000F
:10037000000000000000760F780F8A0F8C0F00003D
:10038000000000000000000000000000000000006D
:1003900000009A0F000000000000000000000000B4
:1003A000000000000000000000000000720F740F49
:1003B00000000000000000000000860F880F4C10B5
:1003C00000000000590F960F980F00000000000079
:1003D00000000000820F840F2D1000000000330F7A
:1003E000920F940F00000000000000007E0F800FAD
:1003F000D90F0000000000002B0F8E0F900F00009F
:100400000000000000007A0F7C0F000000000000D8
:1004100000000000000000000000000000000000DC
:1004200000000000000000000000000000000000CC
:1004300000000000000000000000000000000000BC
:1004400000000000000000000000000000000000AC
:1007500000000000000000000000000000002B0F5F
:100760002B0F2B0F2B0F2B0F2B0F2B0F2B0F2B0FB9
:100770002B0F2B0F2B0F00002B0F2B0F2B0F2B0FE3
:100780002B0F00000000000000002B0F2B0F2B0F81
:100790002B0F2B0FD90F2B0F2B0F2B0F2B0F2B0FDB
:1007A000720F720F2B0F2B0F2B0F2B0F2B0FD90F3D
:1007B0002B0F2B0F2B0F2B0F2B0F2B0F00000000DD
:1007C0002B0F2B0F2B0F2B0F2B0F2B0F2B0F2B0F59
:1007D0002B0F2B0F2B0F2B0F720F2B0F2B0F2B0F02
:1007E0002B0F2B0F2B0F2B0F2B0F2B0F2B0F2B0F39
:1007F0002B0F2B0F2B0F2D102B0F2B0F2B0F2B0F26
:100800002B0F2B0F0000590F590F590F590F590F6C
:10081000590F590F590F590F590F590F590F000000
:10082000590F590F590F590F590F590F590F590F88
:10083000590F590F590F590F590F590F590F2B0FA6
:100840002B0F2B0F2B0FD40F760F760FD40F2B0FF0
:100850002B0F2B0F2B0F2B0F590F2B0F2B0F2B0F9A
:100860002B0FD40F000000002B0F2B0FD40FD40F31
:10087000D40F2B0F590FD40FD40F2B0F2B0F0000B9
:10088000740F590F00002B0FD40FD40F2B0F2B0F09
:1008900000002B0F2B0F2B0F2B0F2B0F2B0F2B0FC2
:1008A0002B0F2B0F2B0F2B0F2B0F2B0F00000000EC
:1008B0000000000000000000000000000000000038
:1008C0000000000000000000000000000000000028
:1008D0000000000000000000000000000000000018
:1008E0000000000000000000000000000000000008
:1008F00000000000000000000000000000000000F8
:1009000000000000000000000000000000000000E7
:1009100000000000000000000000000000000000D7
:1009200000000000000000000000000000000000C7
:1009300000000000000000009A0F0000000000000E
:1009400000000000000000000000000000000000A7
:10095000000000000000590F590F590F590F590F8F
:10096000590F590F590F590F2B0F590F590F0000DD
:10097000590F2B0F590F590F590F590F590F590F65
:10098000590F590F590F2B0F2B0F590F590F590F83
:10099000590F590F590F590F590F590F590F2B0F45
:1009A0002B0F2B0F2B0F590F590F590F590F590F91
:1009B000590F590F00000000590F2B0F2B0F2B0F51
:1009C0002B0F590F590F590F590F590F590F590F15
:1009D000590F590F590F2B0F2B0F2B0F2B0F590F8F
:1009E000590F590F590F590F590F590F590F4C10D3
:1009F000590F4C102B0F2B0F2B0F590F000000001D
:100A000000000000000000000000000000000000E6
:100A100000000000000000000000000000000000D6
:100A200000000000000000000000000000000000C6
:100A300000000000000000000000000000000000B6
:100DE000000000000000000000000000004D4C2A40
:100DF0004AE0E2E6E44B2C284E00E33531504F0048
:100E00000000005051524FE7E11D1B06190501017A
:100E10001110363738E52B041607090A00000B0DB0
:100E20000E0F333431141A081517012F1C180C1229
:100E300013302E1E1F202122290323242526272D8F
:100E400000000000000000000000000000000000A2
:100E5000000000000000000000000000005E5F6075
:100E6000612E0202255A5B5C5D7F0033382D6233B0
:100E70000000315926272E81002F302F300001002D
:100E8000002D3637B480003A3B3C3D3E44453F4060
:100E90004142436600000000000000000000000026
:100EA0000000000000000000000000000000000042
:100EB0000000000000000000000000000000000032
:100EC0000000000000000000000000000000000022
:100ED0000000000000000000000000000000000012
:100EE0000000000000000000000000000000000002
:100EF0000000620000000049000000000000000047
:100F000000375800000000000000000000595A5B44
:100F100058000000000000000000005C5D5E57000B
:100F20000000000000000000005F6061560000004B
:100F3000000000000003000367545500000000009B
:100F400000000000000000000000000000000000A1
:100F50000000000000000000000000000000000091
:100F60000000000000000000000000000000000081
:100F70000000000000000000000000000000000071
:100F80000000000000000000000000000000000061
:100F90000000000000000000000000000000000051
:100FA0000000000000000000000000000000000041
:100FB0000000000000000000000000000000000031
:100FC0000000000000000000000000000000000021
:100FD0000000000000000000000000000000000011
:100FE0000000000000000000000000000000000001
:100FF00000000000000000000000000000000000F1
:1010000000000000000000000000000000000000E0
:1010100000000000000000000000000000000000D0
:1010200000000000000000000000000000000000C0
:1010300000000000000000000000000000000000B0
:1010400000000000000000000000000000000000A0
:101050000000000000000000000000000000000090
:101060000000000000000000000000000000000080
:101070000000000000000000000000000000000070
:101080000000000000000000000000000000000060
:101090000000000000000000000000000000000050
:1010A0000000000000000000000000000000000040
:1010B0000000000000000000000000000000000030
:1010C0000000000000000000000000000000000020
:1010D0000000000000000000000000000000000010
:1010E0000000000000000000000000000000000000
:1010F00000000000000000000000000000000000F0
:1011000000000000000000000000000000000000DF
:1011100000000000000000000000000000000000CF
:1011200000000000000000000000000000000000BF
:1011300000000000000100005C121200020000C963
:10114000113B00210000DB1109002200001D123FAD
:1011500000210100F411090022010004121900030A
:101160000000C5110401030904AB111802030904AE
:1011700073113636034500720067006F0044006F3C
:1011800000780020006500720067006F006E006F3D
:10119000006D006900630020006B0065007900624B
:1011A000006F006100720064000000180375006E9B
:1011B00000730070006500630069006600690065E7
:1011C00000640000000403090409023B000201005E
:1011D000C0320904000001030101000921110100CE
:1011E00001223F000705810308000A0904010001EC
:1011F00003000000092111010001221900070582E6
:101200000308000A050C0901A10185031501269CAC
:101210000219012A9C02751095018100C00501097F
:1012200006A10175019508050719E029E7150025B4
:10123000018102950175088103950575010508195D
:10124000012905910295017503910395067508150D
:101250000025680507190029688100C012010002F5
:1012600000000020501D286000010102000101C1A2
:101270000601C106000011241FBECFEFDAE0DEBF79
:10128000CDBF11E0A0E0B1E0E8E6F5E202C00590D4
:101290000D92AA31B107D9F712E0AAE1B1E001C07D
:1012A0001D92AF3CB107E1F7D5D00C94B2120C946B
:1012B000000020911A01281760F030E0281B310946
:1012C000F901EE0FFF1FE20FF31FE757FD4F80817B
:1012D000089580E0089520911A01281760F030E009
:1012E000281B3109F901EE0FFF1FE20FF31FE7572B
:1012F000FD4F8281089580E00895E1E0F1E021E072
:1013000030E09191911117C0F901E050FF4F91E049
:10131000908340911A014F5F40931A0150E0FA0107
:10132000EE0FFF1FE40FF51FE757FD4F808321836A
:101330006283822F08952F5F3F4F2431310509F7D3
:1013400080E00895CF93DF9360911A0191E0C82F58
:10135000D0E0C050DF4F6917B0F1292F30E0F9011C
:10136000EE0FFF1FE20FF31FE757FD4F21812813F8
:1013700028C0292F30E09617C1F0A9014F5F5F4FB9
:10138000DA01AA0FBB1FA40FB51FA757BD4F4C9181
:10139000F901EE0FFF1FE20FF31FE757FD4F4083E8
:1013A00011962C9121839F5FE4CFF901EE0FFF1F6F
:1013B000E20FF31FE757FD4F1082118218826FEF83
:1013C000690F9F5FC8CF60931A01DF91CF91089595
:1013D0002091C7028091CA0290918802E091870211
:1013E000222381F02EE0E29FF001112424E5929F58
:1013F000E00DF11D1124E80FF11DEE0FFF1FE45A5F
:10140000F84F0FC02EE0E29FF001112424E5929FD7
:10141000E00DF11D1124E80FF11DEE0FFF1FE45345
:10142000FF4F85919491009711F0FC0109958091EF
:101430001A01282F30E0F901EE0FFF1FE20FF31F12
:10144000E757FD4F9281923021F490913202911131
:1014500079CF0895E6D08CE090E090938900809356
:10146000880090938B0080938A0090938D008093E6
:101470008C00259A269A279A1AD630D68823E9F323
:101480008FE790E090938900809388002FE782E4B3
:1014900090E1215080409040E1F700C000008FE7CC
:1014A00090E090938B0080938A002FE782E490E194
:1014B000215080409040E1F700C000008FE790E0AD
:1014C00090938D0080938C002FE782E490E121506F
:1014D00080409040E1F700C00000259826982798AA
:1014E0008FE790E0909389008093880090938B0021
:1014F00080938A0090938D0080938C000EE0809101
:10150000140190911501209116013091170130932B
:1015100015012093140190931701809316018DD02B
:101520001092310280913102863008F058C010923A
:10153000C802F090C802109131022DE02F1508F476
:101540004AC0E0911601F0911701019FC0011124DA
:101550008F0D911DE80FF91F20812093C702E091A4
:101560001401F0911501E80FF91F30813093C50285
:10157000231759F1EC01CD5CDD4F222341F080E0CF
:1015800098DE8093880288831092C60209C0288161
:1015900020938802FC01E55EFE4F80818093C602A5
:1015A00010938702F092CA021092C90211DF809153
:1015B000C802E09131020E9FF0011124E80FF11DE5
:1015C000E55EFE4F8091C60280838091C8028F5FE6
:1015D0008093C802AECF1F5F10933102A3CF81D595
:1015E0009DD78FE19EE40197F1F700C00000809144
:1015F000270280FF02C0259A01C02598809127020A
:1016000081FF02C0269A01C026988091270282FF9E
:1016100002C0279A01C02798809127028091270253
:101620006ECFC5D0811105C01AD0882321F082E089
:10163000089581E0089580E00895CF93DF93EC0151
:101640007FD1811106C0CE0135D0882321F082E000
:1016500003C081E001C080E0DF91CF910895CF9376
:1016600057D380E474D3C82F811120C080E06FD39A
:1016700080E86DD38FEF6BD362D34AD380E467D316
:10168000C82F811113C08CE062D380E860D38FEF44
:101690005ED355D33DD380E45AD3C82F811106C001
:1016A00084E155D38FEF53D38FEF51D348D38C2F91
:1016B000CF9108958F929F92BF92CF92DF92EF9237
:1016C000FF920F931F93CF93DF931F92CDB7DEB797
:1016D0007C01C5DFB82E882369F096E0F70187E02A
:1016E00011928150E9F791508EE0E80EF11C9111B2
:1016F000F5CF4FC000E010E0CC24C394D12C08D328
:1017000080E425D382E123D3C601002E01C0880FD7
:101710000A94EAF780951BD312D3FAD280E417D348
:1017200083E115D3F5D281E412D3CE0101962DD3F6
:1017300006D38981882E912C60E070E045E050E06E
:10174000D701A00FB11FFD01E60FF71F9401042E72
:1017500002C0359527950A94E2F72170332781E07E
:1017600028272170208341505109625F7F4F4F3FEE
:101770008FEF580741F70F5F1F4F0730110509F032
:10178000BECFC6D280E4E3D282E1E1D28FEFDFD2D6
:10179000D6D28B2D0F90DF91CF911F910F91FF909B
:1017A000EF90DF90CF90BF909F908F900895E1E6EB
:1017B000F0E080E88083108256985E9824982C98F8
:1017C00025982698279889EA8093800089E080935D
:1017D000810095D23F9885E08A95F1F700005798EF
:1017E00085E08A95F1F70000549885E08A95F1F735
:1017F0000000559885E08A95F1F700006E9885E025
:101800008A95F1F70000479A85E08A95F1F7000084
:101810005F9A85E08A95F1F700005C9A85E08A95E9
:10182000F1F700005D9A85E08A95F1F70000769A5D
:1018300085E08A95F1F70000879885E08A95F1F7B1
:101840000000869885E08A95F1F70000859885E08C
:101850008A95F1F70000849885E08A95F1F70000F9
:10186000819885E08A95F1F70000809885E08A9557
:10187000F1F70000209885E08A95F1F700002198A3
:1018800085E08A95F1F70000229885E08A95F1F7C6
:101890000000239885E08A95F1F70000529885E0D2
:1018A0008A95F1F70000539885E08A95F1F70000DA
:1018B0003E9885E08A95F1F700008F9A85E08A9539
:1018C000F1F700008E9A85E08A95F1F700008D9A75
:1018D00085E08A95F1F700008C9A85E08A95F1F70A
:1018E0000000899A85E08A95F1F70000889A85E0E2
:1018F0008A95F1F70000289885E08A95F1F70000B5
:10190000299885E08A95F1F700002A9885E08A9564
:10191000F1F700002B9885E08A95F1F700005A98BE
:1019200085E08A95F1F700005B9885E08A95F1F7EC
:101930000000469885E08A95F1F7000080E0089560
:10194000FC01209A85E08A95F1F700008FB180951F
:10195000881F8827881F87838FB191E086FB88279F
:1019600080F98927858B8FB185FB882780F98927A6
:1019700083A38FB182958170892781AB8FB18695C2
:101980008170892787AF8FB1DF01AA5BBF4F81705C
:10199000892717968C93209885E08A95F1F70000A7
:1019A000219A85E08A95F1F700008FB18095881F14
:1019B0008827881F80878FB186FB882780F9892731
:1019C000868B8FB185FB882780F9892784A38FB107
:1019D00082958170892782AB8FB1DF01A05CBF4FF8
:1019E0008695817089278C938FB1DF01AA5BBF4FE9
:1019F0008170892718968C93219885E08A95F1F754
:101A00000000229A85E08A95F1F700008FB1809559
:101A1000881F8827881F81878FB186FB882780F9D8
:101A20008927878B8FB185FB882780F9892785A334
:101A30008FB182958170892783AB8FB1DF01AF5B56
:101A4000BF4F8695817089278C938FB1DF01AA5B88
:101A5000BF4F8170892719968C93229885E08A95CB
:101A6000F1F70000239A85E08A95F1F700008FB125
:101A70008095881F8827881F82878FB186FB8827DB
:101A800080F98927808F8FB185FB882780F9892786
:101A900086A38FB182958170892784AB8FB1DF01D6
:101AA000AE5BBF4F8695817089278C938FB1DF0124
:101AB000AA5BBF4F817089271A968C93239885E083
:101AC0008A95F1F70000529A85E08A95F1F70000B7
:101AD0008FB18095881F8827881F83878FB186FBE9
:101AE000882780F98927818F8FB185FB882780F926
:101AF000892787A38FB182958170892785AB8FB1A4
:101B0000DF01AD5BBF4F8695817089278C938FB1C4
:101B1000DF01AA5BBF4F817089271B968C93529877
:101B200085E08A95F1F70000539A85E08A95F1F7F0
:101B300000008FB18095881F8827881F84878FB108
:101B400086FB882780F98927828F8FB185FB8827BC
:101B500080F9892780A78FB182958170892786AB0C
:101B60008FB1DF01AC5BBF4F8695817089278C9365
:101B70008FB1DF01AA5BBF4F817089271C968C93C0
:101B8000539885E08A95F1F700003E9A85E08A95A2
:101B9000F1F700008FB18095881F8827881F8587FF
:101BA0008FB186FB882780F98927838F8FB185FBCA
:101BB000882780F9892781A78FB18295817089272D
:101BC00087AB8FB1DF01AB5BBF4F869581708927F3
:101BD0008C938FB1EA5BFF4F8170892785873E9890
:101BE00085E08A95F1F7000080E00895962F66233E
:101BF00009F45AC0462F50E0FA01E05EF109E830DE
:101C0000F105B8F5EA5AFF4F90912F02A5C4882339
:101C100011F0916001C09E7F90932F020895882358
:101C200011F09260F9CF9D7FF7CF882311F0946077
:101C3000F3CF9B7FF1CF882311F09860EDCF977F92
:101C4000EBCF882311F09061E7CF9F7EE5CF88230B
:101C500011F09062E1CF9F7DDFCF882311F0906477
:101C6000DBCF9F7BD9CF882311F09068D5CF9F77AA
:101C7000D3CFE9E2F2E020E030E04081882339F080
:101C800041110CC0F901E75DFD4F908308954913A0
:101C900005C0F901E75DFD4F108208952F5F3F4FAA
:101CA00031962630310549F70895482F50E0FA0162
:101CB000E05EF109E830F105A8F4E25AFF4F909197
:101CC0002F024AC490FD19C091FD17C092FD15C0A6
:101CD00093FD13C094FD11C095FD0FC096FD0DC07E
:101CE00097FD0BC0E9E2F2E09191981731F092E094
:101CF000EF32F907C9F780E0089581E00895E9EB34
:101D0000F0E080818C7F808388E48093B800089520
:101D100084EA8093BC008091BC0087FFFCCF809157
:101D2000B900887F883049F08091B900887F803180
:101D300021F08091B900887F089580E0089584E9BA
:101D40008093BC008091BC0084FDFCCF08958093FB
:101D5000BB0084E88093BC008091BC0087FFFCCF6F
:101D60008091B900887F883171F08091B900887FB7
:101D7000883249F08091B900887F803421F08091C9
:101D8000B900887F089580E0089524EC2093BC007A
:101D90002091BC0027FFFCCF2091BB00FC012083D9
:101DA0008091B900887F803521F08091B900887FCB
:101DB000089580E00895CF93DF93C82FD0E0C95EE7
:101DC000DD4F8881BFDA1882DF91CF9108951F938C
:101DD000CF93DF939091CA0220918802E09187020D
:101DE0003EE0E39FF001112434E5239FE00DF11D57
:101DF0001124E90FF11DE451F24F1491C82FD0E0E6
:101E0000C95EDD4F88819EDA80E065DA81508230DC
:101E100018F480E04EDA96DA60E0812F6EDA88837B
:101E2000DF91CF911F9108958091CA02909188020D
:101E3000E09187022EE0E29FF001112424E5929FB9
:101E4000E00DF11D1124E80FF11DE451F24F6491F2
:101E50008091C702CBCE8091C602811103C081E080
:101E600080933202E1CFCF93DF931F92CDB7DEB7DD
:101E70008091CA0290918802E09187022EE0E29F51
:101E8000F001112424E5929FE00DF11D1124E80FCB
:101E9000F11DE451F24F6491862F698306DF698159
:101EA000882311F080E001C081E00F90DF91CF9195
:101EB0009DCE81E08093C6028091C9028F5F80939E
:101EC000C902F7D9809388029091CA02E0918702F3
:101ED0002EE0E29FF0011124E90FF11DED5CFD4FB2
:101EE000808376CA81E073CF81E065CF82E06FCFD7
:101EF00082E061CF83E06BCF83E05DCF84E067CF8A
:101F000084E059CF85E063CF85E055CF86E05FCF91
:101F100086E051CF87E05BCF87E04DCF88E057CF99
:101F200088E049CF89E053CF89E045CF8AE04FCFA1
:101F30008AE041CFF89481E08093E00080E28093D2
:101F4000D8001092C9008FE19EE40197F1F700C01C
:101F500000001DBA109268001CBC10BE1FBA10927F
:101F60007A0010926E0010926F0010927100109221
:101F700072001092C900ECEBF0E0108214B817B8B0
:101F80001AB81DB810BA108215B818B81BB81EB808
:101F900011BA0C94003F089563E881E027DEA1D0D8
:101FA00063E880E023DE9DC061EE8091C7021EDE03
:101FB00052CF8091CA0290918802E09187022EE070
:101FC000E29FF001112424E5929FE00DF11D112400
:101FD000E80FF11DE451F24F64918091C702811125
:101FE00005C090912402915090932402FFDD8091CE
:101FF0002402813041F58091C702882321F181EECE
:1020000054DE8093230285EE50DE8093220261EE3F
:1020100080E0ECDD65EE80E0E9DD69E381E0E6DDAE
:1020200060D069E380E0E2DD5CD080912302882308
:1020300019F061EE81E0DADD80912202882319F047
:1020400065EE81E0D3DD8091C702882329F080917D
:1020500024028F5F809324020895CF938091CA0257
:1020600090918802E09187022EE0E29FF001112416
:1020700024E5929FE00DF11D1124E80FF11DE451BC
:10208000F24FC491809125025DD960E08C2F35D943
:1020900080932502CF9180CF8091250253D9109251
:1020A00025027ACF8091E80080FFFCCF089581E07F
:1020B0008093D70080EA8093D80082E189BD09B47B
:1020C00000FEFDCF80E98093D8001092E0001092CE
:1020D00030028CE08093E200789408958091300281
:1020E000089580913002811102C08FEF08958FB75B
:1020F000F89491E09093E9009091E4009E5C21E0D7
:102100003091E80035FD0EC08FBF809130028823EA
:1021100061F38091E400891741F38FB7F89420931D
:10212000E900EECF90912F029093F1001092F10010
:10213000E9E2F2E091919093F10092E0EF32F90739
:10214000C9F79AE39093E800109228028FBF80E0CD
:1021500008951F920F920FB60F9211248F939F93A1
:10216000EF93FF938091E1001092E10083FF0FC095
:102170001092E90091E09093EB001092EC0092E253
:102180009093ED0098E09093F0001092300282FF5F
:1021900033C080913002882379F18091180188231F
:1021A00059F1809126028F5F80932602837021F57A
:1021B00081E08093E9008091E80085FF1DC0809157
:1021C00028028F5F8093280290911801891314C010
:1021D0001092280280912F028093F1001092F1005A
:1021E000E9E2F2E081918093F10082E0EF32F807BA
:1021F000C9F78AE38093E800FF91EF919F918F9157
:102200000F900FBE0F901F9018951F920F920FB650
:102210000F921124EF92FF920F931F932F933F93EE
:102220004F935F936F937F938F939F93AF93BF93DE
:10223000EF93FF93CF93DF931F92CDB7DEB710924A
:10224000E9008091E80083FF21C19091F100809125
:10225000F1003091F1002091F100E32EF12CF22AEF
:102260000091F1002091F10010E0122B2091F1007B
:102270006091F10032EF3093E800863009F046C0FB
:1022800039E084E391E1FC01459154914E155F05DD
:1022900039F4FC013296459154914017510721F0D1
:1022A0000796315081F7F2C0FC0134964591549164
:1022B000FC013696849130E0362B2F3F310519F022
:1022C00010F02FEF30E0281708F4822F3EEF9091A6
:1022D000E800292F2570D9F392FDDBC0982F8132B9
:1022E00008F090E2FA01292F222331F064916093E3
:1022F000F10021503196F8CF490F511D891B3093C1
:10230000E8008111E4CF903211F3C3C0853049F465
:102310008EEF8093E800C6DE8E2D80688093E30008
:10232000B8C0893041F5911146C0E09230028EEF7D
:102330008093E80041E08EE692E14093E9009C0141
:102340002F5F3F4FFC0154915093EB00552361F0F8
:10235000F90124912093EC009C012D5F3F4FFC017B
:10236000329684918093ED004F5F453011F0C901A2
:10237000E4CF8EE141C0883039F4903809F041C093
:1023800091DE8091300260C0811115C099838ADE90
:102390009981923851F40093E9008091EB0085FB1C
:1023A000882780F91092E90001C080E08093F10055
:1023B0001092F10067C0282F2D7F213011F5923047
:1023C00001F5EF2809F062C00F779FEF900F94306E
:1023D00008F05CC09EEF9093E8000093E900833022
:1023E00009F454C089E18093EB0081E090E0002E75
:1023F00001C0880F0A94EAF78093EA001092EA007D
:1024000048C0012B09F042C0913A09F5813089F4A6
:1024100049DE80912F028093F1001092F100E9E2F1
:10242000F2E081918093F10082E0EF32F807C9F782
:1024300029C0823021F436DE8091180105C0833036
:1024400029F530DE809119018093F1001BC0913293
:10245000E9F4893061F48091E80082FFFCCF80913B
:10246000F100809327028BEF8093E8000BC08A3045
:1024700029F4F09218011092280204C08B3031F434
:10248000E09219018EEF8093E80003C081E280930F
:10249000EB000F90DF91CF91FF91EF91BF91AF9142
:1024A0009F918F917F916F915F914F913F912F916C
:1024B0001F910F91FF90EF900F900FBE0F901F9004
:1024C000189590913002911102C08FEF08959FB737
:1024D000F89422E02093E9002091E4002E5C32E0A1
:1024E0004091E80045FD0EC09FBF909130029923B6
:1024F00061F39091E400921741F39FB7F894309301
:10250000E900EECF8093F1006093F1007093F10049
:102510008AE38093E8009FBF80E008956091CB023A
:102520007091CC028091CD029091CE02681779070C
:1025300081F083E0C6DF992787FD9095009759F4D5
:102540002091CB023091CC023093CE022093CD0269
:10255000089580E090E00895EE0FFF1F0590F4913C
:08256000E02D0994F894FFCF6F
:102568000100000000000000000000000000000062
:0A257800000000006F01C3017D01A7
:00000001FF
